{
  "contractName": "Voting",
  "abi": [
    {
      "constant": true,
      "inputs": [],
      "name": "isStopped",
      "outputs": [
        {
          "name": "",
          "type": "bool"
        }
      ],
      "payable": false,
      "stateMutability": "view",
      "type": "function"
    },
    {
      "constant": true,
      "inputs": [],
      "name": "noVotes",
      "outputs": [
        {
          "name": "",
          "type": "uint64"
        }
      ],
      "payable": false,
      "stateMutability": "view",
      "type": "function"
    },
    {
      "constant": true,
      "inputs": [],
      "name": "yesVotes",
      "outputs": [
        {
          "name": "",
          "type": "uint64"
        }
      ],
      "payable": false,
      "stateMutability": "view",
      "type": "function"
    },
    {
      "inputs": [
        {
          "name": "eligibleVotersMerkleRoot_",
          "type": "bytes32"
        }
      ],
      "payable": false,
      "stateMutability": "nonpayable",
      "type": "constructor"
    },
    {
      "anonymous": false,
      "inputs": [
        {
          "indexed": true,
          "name": "_from",
          "type": "address"
        },
        {
          "indexed": true,
          "name": "myVote",
          "type": "bool"
        }
      ],
      "name": "Voted",
      "type": "event"
    },
    {
      "constant": false,
      "inputs": [],
      "name": "stopContract",
      "outputs": [],
      "payable": false,
      "stateMutability": "nonpayable",
      "type": "function"
    },
    {
      "constant": false,
      "inputs": [
        {
          "name": "path",
          "type": "uint256"
        },
        {
          "name": "witnesses",
          "type": "bytes32[]"
        },
        {
          "name": "myVote",
          "type": "bool"
        }
      ],
      "name": "vote",
      "outputs": [],
      "payable": false,
      "stateMutability": "nonpayable",
      "type": "function"
    }
  ],
  "bytecode": "0x60806040526000600260106101000a81548160ff02191690831515021790555034801561002b57600080fd5b5060405160208061079c8339810180604052602081101561004b57600080fd5b810190808051906020019092919050505080600181905550336000806101000a81548173ffffffffffffffffffffffffffffffffffffffff021916908373ffffffffffffffffffffffffffffffffffffffff160217905550506106e9806100b36000396000f3fe608060405234801561001057600080fd5b50600436106100575760003560e01c806312253a6c1461005c5780633f683b6a14610066578063b5b47f4214610088578063cf70485a146100ba578063fb286c6514610188575b600080fd5b6100646101ba565b005b61006e61028f565b604051808215151515815260200191505060405180910390f35b6100906102a2565b604051808267ffffffffffffffff1667ffffffffffffffff16815260200191505060405180910390f35b610186600480360360608110156100d057600080fd5b8101908080359060200190929190803590602001906401000000008111156100f757600080fd5b82018360208201111561010957600080fd5b8035906020019184602083028401116401000000008311171561012b57600080fd5b919080806020026020016040519081016040528093929190818152602001838360200280828437600081840152601f19601f8201169050808301925050505050505091929192908035151590602001909291905050506102bc565b005b6101906105e8565b604051808267ffffffffffffffff1667ffffffffffffffff16815260200191505060405180910390f35b600260109054906101000a900460ff161561023d576040517f08c379a000000000000000000000000000000000000000000000000000000000815260040180806020018281038252600a8152602001807f49732053746f707065640000000000000000000000000000000000000000000081525060200191505060405180910390fd5b600260109054906101000a900460ff16610271576001600260106101000a81548160ff02191690831515021790555061028d565b6000600260106101000a81548160ff0219169083151502179055505b565b600260109054906101000a900460ff1681565b600260089054906101000a900467ffffffffffffffff1681565b600260109054906101000a900460ff16156102d657600080fd5b601e8251106102e157fe5b60006102ec33610602565b905060008090505b83518161ffff16101561037257600180861614156103345761032d848261ffff168151811061031f57fe5b602002602001015183610672565b9150610358565b61035582858361ffff168151811061034857fe5b6020026020010151610672565b91505b6002858161036257fe5b04945080806001019150506102f4565b5060015481146103ea576040517f08c379a00000000000000000000000000000000000000000000000000000000081526004018080602001828103825260198152602001807f6d65726b656c2074726565206e6f742076616c6964617465640000000000000081525060200191505060405180910390fd5b600360003373ffffffffffffffffffffffffffffffffffffffff1673ffffffffffffffffffffffffffffffffffffffff16815260200190815260200160002060009054906101000a900460ff16156104aa576040517f08c379a000000000000000000000000000000000000000000000000000000000815260040180806020018281038252600d8152602001807f616c726561647920766f7465640000000000000000000000000000000000000081525060200191505060405180910390fd5b6001600360003373ffffffffffffffffffffffffffffffffffffffff1673ffffffffffffffffffffffffffffffffffffffff16815260200190815260200160002060006101000a81548160ff0219169083151502179055508115610554576002600081819054906101000a900467ffffffffffffffff168092919060010191906101000a81548167ffffffffffffffff021916908367ffffffffffffffff1602179055505061059c565b6002600881819054906101000a900467ffffffffffffffff168092919060010191906101000a81548167ffffffffffffffff021916908367ffffffffffffffff160217905550505b8115153373ffffffffffffffffffffffffffffffffffffffff167f8eb81cb806dbb3d8a2f94981614331a55dfd90e06a42fdc362ca3ca96981d92f60405160405180910390a350505050565b600260009054906101000a900467ffffffffffffffff1681565b60008082604051602001808360ff1660ff1660f81b81526001018273ffffffffffffffffffffffffffffffffffffffff1673ffffffffffffffffffffffffffffffffffffffff1660601b815260140192505050604051602081830303815290604052805190602001209050919050565b600060018383604051602001808460ff1660ff1660f81b815260010183815260200182815260200193505050506040516020818303038152906040528051906020012090509291505056fea165627a7a7230582036d67070cacdbfa3f04749d0f21f168a8a7412a698b1f436c1331e6ea3f6712c0029",
  "source": "pragma solidity ^0.5.0;\n\ncontract Voting {\n    address owner;\n    bytes32 eligibleVotersMerkleRoot;\n    uint64 public yesVotes;\n    uint64 public noVotes;\n    bool public isStopped = false;\n\n    mapping(address => bool) voted;\n\n    modifier stopped {\n        require(!isStopped);\n        _;\n    }\n\n    modifier onlyAuthorized {\n        require(!isStopped, \"Is Stopped\");\n        _;\n    }\n\n    function stopContract() public onlyAuthorized {\n        if (!isStopped) {\n            isStopped = true;\n        } else {\n            isStopped = false;\n\n        }\n    }\n\n    constructor(bytes32 eligibleVotersMerkleRoot_) public {\n        eligibleVotersMerkleRoot = eligibleVotersMerkleRoot_;\n        owner = msg.sender;\n    }\n\n    function vote(uint256 path, bytes32[] memory witnesses, bool myVote)\n        public\n        stopped\n    {\n        assert(witnesses.length < 30);\n        //validate the proof!\n        bytes32 node = leafHash(msg.sender);\n        // bytes32 node;\n        for (uint16 i = 0; i < witnesses.length; i++) {\n            if ((path & 0x01) == 1) {\n                node = nodeHash(witnesses[i], node);\n            } else {\n                node = nodeHash(node, witnesses[i]);\n            }\n            path /= 2;\n        }\n        require(node == eligibleVotersMerkleRoot, \"merkel tree not validated\");\n        require(!voted[msg.sender], \"already voted\");\n        voted[msg.sender] = true;\n\n        if (myVote) yesVotes++;\n        else noVotes++;\n        emit Voted(msg.sender, myVote);\n    }\n\n    /// INTERNAL FUNCTIONS ///\n\n    function leafHash(address leaf) private pure returns (bytes32) {\n        return keccak256(abi.encodePacked(uint8(0x00), leaf));\n    }\n\n    function nodeHash(bytes32 left, bytes32 right)\n        private\n        pure\n        returns (bytes32)\n    {\n        return keccak256(abi.encodePacked(uint8(0x01), left, right));\n    }\n    event Voted(address indexed _from, bool indexed myVote);\n\n}\n",
  "sourcePath": "/Users/eduardopezzi/Documents/Blockchain Course/smartcontract_Advanced/Offchain_vote_system/contracts/Voting.sol",
  "compiler": {
    "name": "solc",
    "version": "0.5.8+commit.23d335f2.Emscripten.clang"
  },
  "schemaVersion": "3.0.16",
  "updatedAt": "2020-03-29T16:20:29.315Z",
  "devdoc": {
    "methods": {}
  },
  "userdoc": {
    "methods": {}
  }
}