{
  "contractName": "Voting",
  "abi": [
    {
      "constant": true,
      "inputs": [],
      "name": "eligibleVotersMerkleRoot",
      "outputs": [
        {
          "name": "",
          "type": "bytes32"
        }
      ],
      "payable": false,
      "stateMutability": "view",
      "type": "function"
    },
    {
      "constant": true,
      "inputs": [],
      "name": "owner",
      "outputs": [
        {
          "name": "",
          "type": "address"
        }
      ],
      "payable": false,
      "stateMutability": "view",
      "type": "function"
    },
    {
      "constant": true,
      "inputs": [],
      "name": "noVotes",
      "outputs": [
        {
          "name": "",
          "type": "uint64"
        }
      ],
      "payable": false,
      "stateMutability": "view",
      "type": "function"
    },
    {
      "constant": true,
      "inputs": [],
      "name": "yesVotes",
      "outputs": [
        {
          "name": "",
          "type": "uint64"
        }
      ],
      "payable": false,
      "stateMutability": "view",
      "type": "function"
    },
    {
      "inputs": [
        {
          "name": "eligibleVotersMerkleRoot_",
          "type": "bytes32"
        }
      ],
      "payable": false,
      "stateMutability": "nonpayable",
      "type": "constructor"
    },
    {
      "anonymous": false,
      "inputs": [
        {
          "indexed": true,
          "name": "_from",
          "type": "address"
        },
        {
          "indexed": true,
          "name": "myVote",
          "type": "bool"
        }
      ],
      "name": "Voted",
      "type": "event"
    },
    {
      "constant": false,
      "inputs": [],
      "name": "stopContract",
      "outputs": [],
      "payable": false,
      "stateMutability": "nonpayable",
      "type": "function"
    },
    {
      "constant": false,
      "inputs": [
        {
          "name": "path",
          "type": "uint256"
        },
        {
          "name": "witnesses",
          "type": "bytes32[]"
        },
        {
          "name": "myVote",
          "type": "bool"
        }
      ],
      "name": "vote",
      "outputs": [],
      "payable": false,
      "stateMutability": "nonpayable",
      "type": "function"
    },
    {
      "constant": true,
      "inputs": [],
      "name": "results",
      "outputs": [
        {
          "name": "Yes",
          "type": "uint256"
        },
        {
          "name": "No",
          "type": "uint256"
        }
      ],
      "payable": false,
      "stateMutability": "view",
      "type": "function"
    }
  ],
  "bytecode": "0x60806040526000600260106101000a81548160ff02191690831515021790555034801561002b57600080fd5b506040516020806108878339810180604052602081101561004b57600080fd5b810190808051906020019092919050505080600181905550336000806101000a81548173ffffffffffffffffffffffffffffffffffffffff021916908373ffffffffffffffffffffffffffffffffffffffff160217905550506107d4806100b36000396000f3fe608060405234801561001057600080fd5b506004361061007d5760003560e01c8063a48bdb7c1161005b578063a48bdb7c146100f4578063b5b47f4214610119578063cf70485a1461014b578063fb286c65146102195761007d565b8063112811bc1461008257806312253a6c146100a05780638da5cb5b146100aa575b600080fd5b61008a61024b565b6040518082815260200191505060405180910390f35b6100a8610251565b005b6100b2610326565b604051808273ffffffffffffffffffffffffffffffffffffffff1673ffffffffffffffffffffffffffffffffffffffff16815260200191505060405180910390f35b6100fc61034b565b604051808381526020018281526020019250505060405180910390f35b610121610398565b604051808267ffffffffffffffff1667ffffffffffffffff16815260200191505060405180910390f35b6102176004803603606081101561016157600080fd5b81019080803590602001909291908035906020019064010000000081111561018857600080fd5b82018360208201111561019a57600080fd5b803590602001918460208302840111640100000000831117156101bc57600080fd5b919080806020026020016040519081016040528093929190818152602001838360200280828437600081840152601f19601f8201169050808301925050505050505091929192908035151590602001909291905050506103b2565b005b6102216106d3565b604051808267ffffffffffffffff1667ffffffffffffffff16815260200191505060405180910390f35b60015481565b600260109054906101000a900460ff16156102d4576040517f08c379a000000000000000000000000000000000000000000000000000000000815260040180806020018281038252600a8152602001807f49732053746f707065640000000000000000000000000000000000000000000081525060200191505060405180910390fd5b600260109054906101000a900460ff16610308576001600260106101000a81548160ff021916908315150217905550610324565b6000600260106101000a81548160ff0219169083151502179055505b565b6000809054906101000a900473ffffffffffffffffffffffffffffffffffffffff1681565b600080600260009054906101000a900467ffffffffffffffff1667ffffffffffffffff169150600260089054906101000a900467ffffffffffffffff1667ffffffffffffffff1690509091565b600260089054906101000a900467ffffffffffffffff1681565b600260109054906101000a900460ff16156103cc57600080fd5b60006103d7336106ed565b905060008090505b83518161ffff16101561045d576001808616141561041f57610418848261ffff168151811061040a57fe5b60200260200101518361075d565b9150610443565b61044082858361ffff168151811061043357fe5b602002602001015161075d565b91505b6002858161044d57fe5b04945080806001019150506103df565b5060015481146104d5576040517f08c379a00000000000000000000000000000000000000000000000000000000081526004018080602001828103825260198152602001807f6d65726b656c2074726565206e6f742076616c6964617465640000000000000081525060200191505060405180910390fd5b600360003373ffffffffffffffffffffffffffffffffffffffff1673ffffffffffffffffffffffffffffffffffffffff16815260200190815260200160002060009054906101000a900460ff1615610595576040517f08c379a000000000000000000000000000000000000000000000000000000000815260040180806020018281038252600d8152602001807f616c726561647920766f7465640000000000000000000000000000000000000081525060200191505060405180910390fd5b6001600360003373ffffffffffffffffffffffffffffffffffffffff1673ffffffffffffffffffffffffffffffffffffffff16815260200190815260200160002060006101000a81548160ff021916908315150217905550811561063f576002600081819054906101000a900467ffffffffffffffff168092919060010191906101000a81548167ffffffffffffffff021916908367ffffffffffffffff16021790555050610687565b6002600881819054906101000a900467ffffffffffffffff168092919060010191906101000a81548167ffffffffffffffff021916908367ffffffffffffffff160217905550505b8115153373ffffffffffffffffffffffffffffffffffffffff167f8eb81cb806dbb3d8a2f94981614331a55dfd90e06a42fdc362ca3ca96981d92f60405160405180910390a350505050565b600260009054906101000a900467ffffffffffffffff1681565b60008082604051602001808360ff1660ff1660f81b81526001018273ffffffffffffffffffffffffffffffffffffffff1673ffffffffffffffffffffffffffffffffffffffff1660601b815260140192505050604051602081830303815290604052805190602001209050919050565b600060018383604051602001808460ff1660ff1660f81b815260010183815260200182815260200193505050506040516020818303038152906040528051906020012090509291505056fea165627a7a72305820d7655ec2754b06b560ef19c77cf157c7dc5cd8d44ac1626831825f7d7f69db190029",
  "source": "pragma solidity ^0.5.0;\n\ncontract Voting {\n    address public owner;\n    bytes32 public eligibleVotersMerkleRoot;\n    uint64 public yesVotes;\n    uint64 public noVotes;\n    bool isStopped = false;\n\n    mapping(address => bool) voted;\n\n    modifier stoppedInEmergency {\n        require(!isStopped);\n        _;\n    }\n\n    modifier onlyAuthorized {\n        require(!isStopped, \"Is Stopped\");\n        _;\n    }\n\n    function stopContract() public onlyAuthorized {\n        if (!isStopped) {\n            isStopped = true;\n        } else {\n            isStopped = false;\n\n        }\n    }\n\n    constructor(bytes32 eligibleVotersMerkleRoot_) public {\n        eligibleVotersMerkleRoot = eligibleVotersMerkleRoot_;\n        owner = msg.sender;\n    }\n\n    function vote(uint256 path, bytes32[] memory witnesses, bool myVote)\n        public\n        stoppedInEmergency\n    {\n        //validate the proof!\n        bytes32 node = leafHash(msg.sender);\n        // bytes32 node;\n        for (uint16 i = 0; i < witnesses.length; i++) {\n            if ((path & 0x01) == 1) {\n                node = nodeHash(witnesses[i], node);\n            } else {\n                node = nodeHash(node, witnesses[i]);\n            }\n            path /= 2;\n        }\n        require(node == eligibleVotersMerkleRoot, \"merkel tree not validated\");\n        require(!voted[msg.sender], \"already voted\");\n        voted[msg.sender] = true;\n\n        if (myVote) yesVotes++;\n        else noVotes++;\n        emit Voted(msg.sender, myVote);\n    }\n\n    function results() public view returns (uint256 Yes, uint256 No) {\n        Yes = yesVotes;\n        No = noVotes;\n    }\n\n    /// INTERNAL FUNCTIONS ///\n\n    function leafHash(address leaf) private pure returns (bytes32) {\n        return keccak256(abi.encodePacked(uint8(0x00), leaf));\n    }\n\n    function nodeHash(bytes32 left, bytes32 right)\n        private\n        pure\n        returns (bytes32)\n    {\n        return keccak256(abi.encodePacked(uint8(0x01), left, right));\n    }\n    event Voted(address indexed _from, bool indexed myVote);\n\n}\n",
  "sourcePath": "/Users/eduardopezzi/Documents/Blockchain Course/smartcontract_Advanced/Offchain_vote_system/contracts/Voting.sol",
  "compiler": {
    "name": "solc",
    "version": "0.5.8+commit.23d335f2.Emscripten.clang"
  },
  "schemaVersion": "3.0.16",
  "updatedAt": "2020-03-28T13:02:44.174Z",
  "devdoc": {
    "methods": {}
  },
  "userdoc": {
    "methods": {}
  }
}